{
  "contractName": "Tombola",
  "abi": [
    {
      "inputs": [
        {
          "internalType": "uint256",
          "name": "_minWager",
          "type": "uint256"
        }
      ],
      "payable": false,
      "stateMutability": "nonpayable",
      "type": "constructor"
    },
    {
      "anonymous": false,
      "inputs": [
        {
          "indexed": false,
          "internalType": "uint256",
          "name": "players",
          "type": "uint256"
        },
        {
          "indexed": false,
          "internalType": "uint256",
          "name": "maxPlayers",
          "type": "uint256"
        }
      ],
      "name": "Status",
      "type": "event"
    },
    {
      "anonymous": false,
      "inputs": [
        {
          "indexed": false,
          "internalType": "uint256",
          "name": "number",
          "type": "uint256"
        }
      ],
      "name": "WinningNumber",
      "type": "event"
    },
    {
      "constant": false,
      "inputs": [
        {
          "internalType": "uint256",
          "name": "number",
          "type": "uint256"
        }
      ],
      "name": "bet",
      "outputs": [],
      "payable": true,
      "stateMutability": "payable",
      "type": "function"
    },
    {
      "constant": true,
      "inputs": [],
      "name": "getWinningNumber",
      "outputs": [
        {
          "internalType": "uint256",
          "name": "",
          "type": "uint256"
        }
      ],
      "payable": false,
      "stateMutability": "view",
      "type": "function"
    },
    {
      "constant": false,
      "inputs": [],
      "name": "kill",
      "outputs": [],
      "payable": false,
      "stateMutability": "nonpayable",
      "type": "function"
    },
    {
      "constant": true,
      "inputs": [],
      "name": "getStatus",
      "outputs": [
        {
          "internalType": "uint256",
          "name": "",
          "type": "uint256"
        },
        {
          "internalType": "uint256",
          "name": "",
          "type": "uint256"
        }
      ],
      "payable": false,
      "stateMutability": "view",
      "type": "function"
    }
  ],
  "bytecode": "0x608060405260018055600060025560006003556103e760045534801561002457600080fd5b5060405161092c38038061092c8339818101604052602081101561004757600080fd5b8101908080519060200190929190505050336000806101000a81548173ffffffffffffffffffffffffffffffffffffffff021916908373ffffffffffffffffffffffffffffffffffffffff16021790555060008111156100a957806001819055505b50610873806100b96000396000f3fe60806040526004361061003f5760003560e01c806341c0e1b5146100445780634e69d5601461005b5780637365870b1461008d5780638b0b9ed4146100bb575b600080fd5b34801561005057600080fd5b506100596100e6565b005b34801561006757600080fd5b50610070610177565b604051808381526020018281526020019250505060405180910390f35b6100b9600480360360208110156100a357600080fd5b8101908080359060200190929190505050610187565b005b3480156100c757600080fd5b506100d0610414565b6040518082815260200191505060405180910390f35b6000809054906101000a900473ffffffffffffffffffffffffffffffffffffffff1673ffffffffffffffffffffffffffffffffffffffff163373ffffffffffffffffffffffffffffffffffffffff161415610175576000809054906101000a900473ffffffffffffffffffffffffffffffffffffffff1673ffffffffffffffffffffffffffffffffffffffff16ff5b565b6000806003546002915091509091565b60001515600660003373ffffffffffffffffffffffffffffffffffffffff1673ffffffffffffffffffffffffffffffffffffffff16815260200190815260200160002060009054906101000a900460ff161515146101e457600080fd5b600181101580156101f6575060038111155b6101ff57600080fd5b600154670de0b6b3a7640000348161021357fe5b04101561021f57600080fd5b34600760003373ffffffffffffffffffffffffffffffffffffffff1673ffffffffffffffffffffffffffffffffffffffff1681526020019081526020016000206000018190555080600760003373ffffffffffffffffffffffffffffffffffffffff1673ffffffffffffffffffffffffffffffffffffffff1681526020019081526020016000206001018190555060053390806001815401808255809150509060018203906000526020600020016000909192909190916101000a81548173ffffffffffffffffffffffffffffffffffffffff021916908373ffffffffffffffffffffffffffffffffffffffff160217905550506001600660003373ffffffffffffffffffffffffffffffffffffffff1673ffffffffffffffffffffffffffffffffffffffff16815260200190815260200160002060006101000a81548160ff021916908315150217905550600360008154809291906001019190505550346002600082825401925050819055506002600354106103cf5761039f61041e565b6103a761072d565b600560006103b591906107d6565b600060028190555060006003819055506103e76004819055505b7f31a1adb447f9b6b89f24bf104f0b7a06975ad9f35670dbfaf7ce29190ec547626003546002604051808381526020018281526020019250505060405180910390a150565b6000600454905090565b6001600342604051602001808281526020019150506040516020818303038152906040528051906020012060001c8161045357fe5b06016004819055507fccd04777bc0ed6235e241cd9094eacbb82cd67984c5b66f7e045ed07b5aed8b96004546040518082815260200191505060405180910390a161049c6107f7565b6000809050600080905060008090505b6005805490508110156105e3576000600582815481106104c857fe5b9060005260206000200160009054906101000a900473ffffffffffffffffffffffffffffffffffffffff169050600454600760008373ffffffffffffffffffffffffffffffffffffffff1673ffffffffffffffffffffffffffffffffffffffff1681526020019081526020016000206001015414156105d5578085856002811061054e57fe5b602002019073ffffffffffffffffffffffffffffffffffffffff16908173ffffffffffffffffffffffffffffffffffffffff1681525050600760008273ffffffffffffffffffffffffffffffffffffffff1673ffffffffffffffffffffffffffffffffffffffff168152602001908152602001600020600001548301925083806001019450505b5080806001019150506104ac565b5060008090505b828110156106b5578381600281106105fe57fe5b602002015173ffffffffffffffffffffffffffffffffffffffff166108fc600254846007600089876002811061063057fe5b602002015173ffffffffffffffffffffffffffffffffffffffff1673ffffffffffffffffffffffffffffffffffffffff168152602001908152602001600020600001548161067a57fe5b04029081150290604051600060405180830381858888f193505050501580156106a7573d6000803e3d6000fd5b5080806001019150506105ea565b506000821415610728576000809054906101000a900473ffffffffffffffffffffffffffffffffffffffff1673ffffffffffffffffffffffffffffffffffffffff166108fc479081150290604051600060405180830381858888f19350505050158015610726573d6000803e3d6000fd5b505b505050565b60008090505b6005805490508110156107d357600660006005838154811061075157fe5b9060005260206000200160009054906101000a900473ffffffffffffffffffffffffffffffffffffffff1673ffffffffffffffffffffffffffffffffffffffff1673ffffffffffffffffffffffffffffffffffffffff16815260200190815260200160002060006101000a81549060ff02191690558080600101915050610733565b50565b50805460008255906000526020600020908101906107f49190610819565b50565b6040518060400160405280600290602082028038833980820191505090505090565b61083b91905b8082111561083757600081600090555060010161081f565b5090565b9056fea265627a7a72315820faab7ecc4a84153377aa1ba1e59a14830d0501a376d8fb75ca1b1a2c88cc250264736f6c63430005110032",
  "source": "pragma solidity ^0.5;\r\n\r\ncontract Tombola {\r\n    address payable owner; \r\n    uint minWager = 1; \r\n    uint totalWager = 0; \r\n    uint numberOfWagers = 0;   \r\n    uint constant MAX_NUMBER_OF_WAGERS = 2; \r\n    uint winningNumber = 999; \r\n    uint constant MAX_WINNING_NUMBER = 3; \r\n    address payable [] playerAddresses;\r\n    mapping (address => bool) playerAddressesMapping;\r\n    struct Player { \r\n        uint amountWagered; \r\n        uint numberWagered; \r\n    }\r\n    mapping(address => Player) playerDetails;\r\n\r\n    // the event to announce the winning number\r\n    event WinningNumber(\r\n        uint number\r\n    );\r\n    \r\n    // the event to display the status of the game\r\n    event Status (\r\n        uint players,\r\n        uint maxPlayers\r\n    );\r\n\r\n    // the constructor for the contract\r\n    constructor(uint _minWager) public {        \r\n        owner = msg.sender;\r\n        if (_minWager >0) minWager = _minWager;\r\n    }\r\n\r\n    function bet(uint number) public payable {\r\n        // you check using the mapping for performance reasons\r\n        require(playerAddressesMapping[msg.sender] == false);\r\n        \r\n        // check the range of numbers allowed\r\n        require(number >=1 && number <= MAX_WINNING_NUMBER);\r\n        \r\n        // note that msg.value is in wei; need to convert to\r\n        // ether\r\n        require( (msg.value / (1 ether)) >= minWager);\r\n\r\n        // record the number and amount wagered by the player\r\n        playerDetails[msg.sender].amountWagered = msg.value;\r\n        playerDetails[msg.sender].numberWagered = number;\r\n\r\n        // add the player address to the array of addresses as\r\n        // well as mapping\r\n        playerAddresses.push(msg.sender);\r\n        playerAddressesMapping[msg.sender] = true;\r\n\r\n        numberOfWagers++;\r\n        totalWager += msg.value;\r\n\r\n        if (numberOfWagers >= MAX_NUMBER_OF_WAGERS) {\r\n            announceWinners(); \r\n            \r\n            //---start a new game---\r\n            // remove all the player addresses mappings\r\n            removeAllPlayersFromMapping();\r\n            \r\n            // remove all the addresses in the array\r\n            delete playerAddresses;\r\n            \r\n            // reset the variables\r\n            totalWager = 0;                     \r\n            numberOfWagers = 0;\r\n            winningNumber = 999;  \r\n        }\r\n        \r\n        // call the event to inform the client about the \r\n        // status of the game\r\n        emit Status(numberOfWagers, MAX_NUMBER_OF_WAGERS);\r\n    }\r\n\r\n    function removeAllPlayersFromMapping() private {\r\n        for (uint i=0; i < playerAddresses.length; i++) {\r\n            delete playerAddressesMapping[playerAddresses[i]];\r\n        }\r\n    }\r\n\r\n    function announceWinners() private {\r\n        winningNumber = \r\n          uint(keccak256(abi.encodePacked(block.timestamp))) % \r\n          MAX_WINNING_NUMBER + 1;\r\n        \r\n        // call the event to announce the winning number\r\n        emit WinningNumber(winningNumber);\r\n\r\n        address payable[MAX_NUMBER_OF_WAGERS] memory winners;\r\n\r\n        uint winnerCount = 0;\r\n        uint totalWinningWager = 0;\r\n        \r\n        // find out the winners\r\n        for (uint i=0; i < playerAddresses.length; i++) {\r\n            // get the address of each player\r\n            address payable playerAddress = \r\n                playerAddresses[i];\r\n            \r\n            // if the player betted number is the winning \r\n            // number\r\n            if (playerDetails[playerAddress].numberWagered == \r\n                winningNumber) {\r\n                // save the player address into the winners \r\n                // array\r\n                winners[winnerCount] = playerAddress;            \r\n                \r\n                // sum up the total wagered amount for the \r\n                // winning numbers\r\n                totalWinningWager +=                     \r\n                  playerDetails[playerAddress].amountWagered;\r\n                winnerCount++;\r\n            }\r\n        }    \r\n\r\n        // make payments to each winning player\r\n        for (uint j=0; j<winnerCount; j++) {\r\n            winners[j].transfer(\r\n                (playerDetails[winners[j]].amountWagered / \r\n                 totalWinningWager) * totalWager);\r\n        }\r\n        \r\n        // if there is no winner, transfer all\r\n        // the remaining ethers back to owner\r\n        if (winnerCount==0) {\r\n            owner.transfer(address(this).balance);\r\n        }\r\n    }\r\n\r\n    function getWinningNumber() view public returns (uint) {\r\n        return winningNumber;\r\n    }\r\n\r\n    function kill() public {\r\n        if (msg.sender == owner) {\r\n            selfdestruct(owner);\r\n        }        \r\n    }\r\n    \r\n    function getStatus() view public returns (uint,uint) {\r\n        return (numberOfWagers, MAX_NUMBER_OF_WAGERS);\r\n    }    \r\n\r\n}\r\n",
  "sourcePath": "C:\\Workspace\\Repo\\Smart Contract Solidity\\Tombola\\contracts\\Tombola.sol",
  "compiler": {
    "name": "solc",
    "version": "0.5.17+commit.d19bba13.Emscripten.clang"
  },
  "schemaVersion": "3.4.5",
  "updatedAt": "2022-04-02T19:27:51.292Z",
  "networkType": "ethereum",
  "devdoc": {
    "methods": {}
  },
  "userdoc": {
    "methods": {}
  }
}